:100000000C9460000C9472000C9472000C947200BA
:100010000C9472000C9472000C9472000C94720098
:100020000C9472000C9472000C9472000C94720088
:100030000C9472000C9472000C9408010C947200E1
:100040000C9472000C9472000C9472000C94720068
:100050000C9472000C9472000C9472000C94720058
:100060000C9472000C947200000000000000570015
:1000700001000000000055000000000000005D01CC
:10008000000000007707000000005D000000000095
:1000900000000000DD01000000000000000000077B
:1000A000010000070000000900000B00000700002D
:1000B00000000900000007040B0B0E160E110B03C5
:1000C00011241FBECFEFD8E0DEBFCDBF11E0A0E00E
:1000D000B1E001C01D92A430B107E1F70E947400A5
:1000E0000C9477020C940000DF93CF93CDB7DEB76A
:1000F00060970FB6F894DEBF0FBECDBF0E943301EC
:1001000080E065E041E00E94240268E572E080E062
:1001100090E00E949D011C866CC08C85882F90E029
:100120008A549F4F9B878A87EA85FB8584918987BC
:1001300089858E878E85882F90E0880F991F885932
:100140009F4F98878F838F819885FC01859194912B
:100150009E838D83F887EF838D819E81988B8F8717
:100160001C8220C08F8581708D878D85882331F416
:1001700080E065E040E00E94D10105C080E065E0DC
:1001800041E00E94D1018F85988996958795988B3B
:100190008F876CE271E080E090E00E949D018C818D
:1001A0008F5F8C838E85882F90E084569F4F9B8332
:1001B0008A83EA81FB818491898399818C81891763
:1001C00088F280E065E040E00E94D1018C858430B7
:1001D00039F464E378E080E090E00E949D0106C07D
:1001E00064E873E080E090E00E949D018C858F5F61
:1001F0008C878C858A3008F490CF80E090E0609600
:100200000FB6F894DEBF0FBECDBFCF91DF9108953A
:100210001F920F920FB60F9211248F939F93AF935B
:10022000BF93DF93CF93CDB7DEB78091000190915C
:100230000101A0910201B09103010196A11DB11D20
:100240008093000190930101A0930201B0930301F8
:10025000CF91DF91BF91AF919F918F910F900FBE82
:100260000F901F901895DF93CF9300D000D00F927E
:10027000CDB7DEB7E4E4F0E082E0808380E89EE37F
:10028000A0E0B0E08A839B83AC83BD8381E0898357
:1002900013C08A819B81AC81BD81689412F8B695A8
:1002A000A795979587951694D1F78A839B83AC83FE
:1002B000BD8389818F5F89838A819B81AC81BD8168
:1002C0008F3F9105A105B10509F018F7E5E4F0E0CD
:1002D00089818083E7E4F0E08A8181508083EEE6C3
:1002E000F0E082E0808378940F900F900F900F9051
:1002F0000F90CF91DF910895DF93CF9300D000D07E
:10030000CDB7DEB7F8948091000190910101A091E2
:100310000201B091030189839A83AB83BC837894F3
:1003200089819A81AB81BC81BC01CD010F900F9076
:100330000F900F90CF91DF910895DF93CF93CDB7BA
:10034000DEB728970FB6F894DEBF0FBECDBF6D8322
:100350007E838F8398870E947C01DC01CB01898397
:100360009A83AB83BC830E947C019B01AC01898191
:100370009A81AB81BC81281B390B4A0B5B0B8D81A9
:100380009E81AF81B885281739074A075B0758F364
:1003900028960FB6F894DEBF0FBECDBFCF91DF9188
:1003A00008958130F9F0813020F0823009F04BC09F
:1003B00032C0413059F425B181E090E002C0880F8D
:1003C000991F6A95E2F7282B25B9089525B181E098
:1003D00090E002C0880F991F6A95E2F7809582230A
:1003E00085B90895413059F428B181E090E002C008
:1003F000880F991F6A95E2F7282B28B9089528B12C
:1004000081E090E002C0880F991F6A95E2F780951D
:10041000822388B90895413059F42BB181E090E0EE
:1004200002C0880F991F6A95E2F7282B2BB908950F
:100430002BB181E090E002C0880F991F6A95E2F726
:10044000809582238BB908958130F9F0813020F0B6
:10045000823009F04BC032C0413059F424B181E000
:1004600090E002C0880F991F6A95E2F7282B24B903
:10047000089524B181E090E002C0880F991F6A9529
:10048000E2F78095822384B90895413059F427B169
:1004900081E090E002C0880F991F6A95E2F7282B4F
:1004A00027B9089527B181E090E002C0880F991F15
:1004B0006A95E2F78095822387B90895413059F40F
:1004C0002AB181E090E002C0880F991F6A95E2F797
:1004D000282B2AB908952AB181E090E002C0880F44
:1004E000991F6A95E2F7809582238AB90895F89456
:0204F000FFCF3C
:00000001FF
